{
  "transactions": [
    {
      "hash": "0xa20fbdecab4a729422d51d88086bd93ee3405bea08532c4added2ace959c52f6",
      "transactionType": "CREATE",
      "contractName": "ShawnERC20",
      "contractAddress": "0x5eb028b67b2b89ec8e66d69c1be43e1287229e7a",
      "function": null,
      "arguments": [
        "Shawn Token",
        "SC"
      ],
      "transaction": {
        "from": "0xed2eb97b84386cb74c1232e833c8ca26fcd2e1b9",
        "gas": "0x1118fa",
        "value": "0x0",
        "input": "0x60806040526040518060400160405280600b81526020017f536861776e20546f6b656e00000000000000000000000000000000000000000081525060039081610048919061033a565b506040518060400160405280600281526020017f53430000000000000000000000000000000000000000000000000000000000008152506004908161008d919061033a565b50600a60055f6101000a81548160ff021916908360ff1602179055503480156100b4575f5ffd5b5060405161129b38038061129b83398181016040528101906100d69190610529565b81600390816100e5919061033a565b5080600490816100f5919061033a565b50505061059f565b5f81519050919050565b7f4e487b71000000000000000000000000000000000000000000000000000000005f52604160045260245ffd5b7f4e487b71000000000000000000000000000000000000000000000000000000005f52602260045260245ffd5b5f600282049050600182168061017857607f821691505b60208210810361018b5761018a610134565b5b50919050565b5f819050815f5260205f209050919050565b5f6020601f8301049050919050565b5f82821b905092915050565b5f600883026101ed7fffffffffffffffffffffffffffffffffffffffffffffffffffffffffffffffff826101b2565b6101f786836101b2565b95508019841693508086168417925050509392505050565b5f819050919050565b5f819050919050565b5f61023b6102366102318461020f565b610218565b61020f565b9050919050565b5f819050919050565b61025483610221565b61026861026082610242565b8484546101be565b825550505050565b5f5f905090565b61027f610270565b61028a81848461024b565b505050565b5b818110156102ad576102a25f82610277565b600181019050610290565b5050565b601f8211156102f2576102c381610191565b6102cc846101a3565b810160208510156102db578190505b6102ef6102e7856101a3565b83018261028f565b50505b505050565b5f82821c905092915050565b5f6103125f19846008026102f7565b1980831691505092915050565b5f61032a8383610303565b9150826002028217905092915050565b610343826100fd565b67ffffffffffffffff81111561035c5761035b610107565b5b6103668254610161565b6103718282856102b1565b5f60209050601f8311600181146103a2575f8415610390578287015190505b61039a858261031f565b865550610401565b601f1984166103b086610191565b5f5b828110156103d7578489015182556001820191506020850194506020810190506103b2565b868310156103f457848901516103f0601f891682610303565b8355505b6001600288020188555050505b505050505050565b5f604051905090565b5f5ffd5b5f5ffd5b5f5ffd5b5f5ffd5b5f601f19601f8301169050919050565b61043b82610422565b810181811067ffffffffffffffff8211171561045a57610459610107565b5b80604052505050565b5f61046c610409565b90506104788282610432565b919050565b5f67ffffffffffffffff82111561049757610496610107565b5b6104a082610422565b9050602081019050919050565b8281835e5f83830152505050565b5f6104cd6104c88461047d565b610463565b9050828152602081018484840111156104e9576104e861041e565b5b6104f48482856104ad565b509392505050565b5f82601f8301126105105761050f61041a565b5b81516105208482602086016104bb565b91505092915050565b5f5f6040838503121561053f5761053e610412565b5b5f83015167ffffffffffffffff81111561055c5761055b610416565b5b610568858286016104fc565b925050602083015167ffffffffffffffff81111561058957610588610416565b5b610595858286016104fc565b9150509250929050565b610cef806105ac5f395ff3fe608060405234801561000f575f5ffd5b50600436106100a7575f3560e01c806342966c681161006f57806342966c681461016557806370a082311461018157806395d89b41146101b1578063a0712d68146101cf578063a9059cbb146101eb578063dd62ed3e1461021b576100a7565b806306fdde03146100ab578063095ea7b3146100c957806318160ddd146100f957806323b872dd14610117578063313ce56714610147575b5f5ffd5b6100b361024b565b6040516100c09190610967565b60405180910390f35b6100e360048036038101906100de9190610a18565b6102d7565b6040516100f09190610a70565b60405180910390f35b6101016103c4565b60405161010e9190610a98565b60405180910390f35b610131600480360381019061012c9190610ab1565b6103ca565b60405161013e9190610a70565b60405180910390f35b61014f61056d565b60405161015c9190610b1c565b60405180910390f35b61017f600480360381019061017a9190610b35565b61057f565b005b61019b60048036038101906101969190610b60565b610651565b6040516101a89190610a98565b60405180910390f35b6101b9610665565b6040516101c69190610967565b60405180910390f35b6101e960048036038101906101e49190610b35565b6106f1565b005b61020560048036038101906102009190610a18565b6107c3565b6040516102129190610a70565b60405180910390f35b61023560048036038101906102309190610b8b565b6108d7565b6040516102429190610a98565b60405180910390f35b6003805461025890610bf6565b80601f016020809104026020016040519081016040528092919081815260200182805461028490610bf6565b80156102cf5780601f106102a6576101008083540402835291602001916102cf565b820191905f5260205f20905b8154815290600101906020018083116102b257829003601f168201915b505050505081565b5f8160015f3373ffffffffffffffffffffffffffffffffffffffff1673ffffffffffffffffffffffffffffffffffffffff1681526020019081526020015f205f8573ffffffffffffffffffffffffffffffffffffffff1673ffffffffffffffffffffffffffffffffffffffff1681526020019081526020015f20819055508273ffffffffffffffffffffffffffffffffffffffff163373ffffffffffffffffffffffffffffffffffffffff167f8c5be1e5ebec7d5bd14f71427d1e84f3dd0314c0f7b2291e5b200ac8c7c3b925846040516103b29190610a98565b60405180910390a36001905092915050565b60025481565b5f8160015f8673ffffffffffffffffffffffffffffffffffffffff1673ffffffffffffffffffffffffffffffffffffffff1681526020019081526020015f205f3373ffffffffffffffffffffffffffffffffffffffff1673ffffffffffffffffffffffffffffffffffffffff1681526020019081526020015f205f8282546104529190610c53565b92505081905550815f5f8673ffffffffffffffffffffffffffffffffffffffff1673ffffffffffffffffffffffffffffffffffffffff1681526020019081526020015f205f8282546104a49190610c53565b92505081905550815f5f8573ffffffffffffffffffffffffffffffffffffffff1673ffffffffffffffffffffffffffffffffffffffff1681526020019081526020015f205f8282546104f69190610c86565b925050819055508273ffffffffffffffffffffffffffffffffffffffff168473ffffffffffffffffffffffffffffffffffffffff167fddf252ad1be2c89b69c2b068fc378daa952ba7f163c4a11628f55a4df523b3ef8460405161055a9190610a98565b60405180910390a3600190509392505050565b60055f9054906101000a900460ff1681565b805f5f3373ffffffffffffffffffffffffffffffffffffffff1673ffffffffffffffffffffffffffffffffffffffff1681526020019081526020015f205f8282546105ca9190610c53565b925050819055508060025f8282546105e29190610c53565b925050819055505f73ffffffffffffffffffffffffffffffffffffffff163373ffffffffffffffffffffffffffffffffffffffff167fddf252ad1be2c89b69c2b068fc378daa952ba7f163c4a11628f55a4df523b3ef836040516106469190610a98565b60405180910390a350565b5f602052805f5260405f205f915090505481565b6004805461067290610bf6565b80601f016020809104026020016040519081016040528092919081815260200182805461069e90610bf6565b80156106e95780601f106106c0576101008083540402835291602001916106e9565b820191905f5260205f20905b8154815290600101906020018083116106cc57829003601f168201915b505050505081565b805f5f3373ffffffffffffffffffffffffffffffffffffffff1673ffffffffffffffffffffffffffffffffffffffff1681526020019081526020015f205f82825461073c9190610c86565b925050819055508060025f8282546107549190610c86565b925050819055503373ffffffffffffffffffffffffffffffffffffffff165f73ffffffffffffffffffffffffffffffffffffffff167fddf252ad1be2c89b69c2b068fc378daa952ba7f163c4a11628f55a4df523b3ef836040516107b89190610a98565b60405180910390a350565b5f815f5f3373ffffffffffffffffffffffffffffffffffffffff1673ffffffffffffffffffffffffffffffffffffffff1681526020019081526020015f205f82825461080f9190610c53565b92505081905550815f5f8573ffffffffffffffffffffffffffffffffffffffff1673ffffffffffffffffffffffffffffffffffffffff1681526020019081526020015f205f8282546108619190610c86565b925050819055508273ffffffffffffffffffffffffffffffffffffffff163373ffffffffffffffffffffffffffffffffffffffff167fddf252ad1be2c89b69c2b068fc378daa952ba7f163c4a11628f55a4df523b3ef846040516108c59190610a98565b60405180910390a36001905092915050565b6001602052815f5260405f20602052805f5260405f205f91509150505481565b5f81519050919050565b5f82825260208201905092915050565b8281835e5f83830152505050565b5f601f19601f8301169050919050565b5f610939826108f7565b6109438185610901565b9350610953818560208601610911565b61095c8161091f565b840191505092915050565b5f6020820190508181035f83015261097f818461092f565b905092915050565b5f5ffd5b5f73ffffffffffffffffffffffffffffffffffffffff82169050919050565b5f6109b48261098b565b9050919050565b6109c4816109aa565b81146109ce575f5ffd5b50565b5f813590506109df816109bb565b92915050565b5f819050919050565b6109f7816109e5565b8114610a01575f5ffd5b50565b5f81359050610a12816109ee565b92915050565b5f5f60408385031215610a2e57610a2d610987565b5b5f610a3b858286016109d1565b9250506020610a4c85828601610a04565b9150509250929050565b5f8115159050919050565b610a6a81610a56565b82525050565b5f602082019050610a835f830184610a61565b92915050565b610a92816109e5565b82525050565b5f602082019050610aab5f830184610a89565b92915050565b5f5f5f60608486031215610ac857610ac7610987565b5b5f610ad5868287016109d1565b9350506020610ae6868287016109d1565b9250506040610af786828701610a04565b9150509250925092565b5f60ff82169050919050565b610b1681610b01565b82525050565b5f602082019050610b2f5f830184610b0d565b92915050565b5f60208284031215610b4a57610b49610987565b5b5f610b5784828501610a04565b91505092915050565b5f60208284031215610b7557610b74610987565b5b5f610b82848285016109d1565b91505092915050565b5f5f60408385031215610ba157610ba0610987565b5b5f610bae858286016109d1565b9250506020610bbf858286016109d1565b9150509250929050565b7f4e487b71000000000000000000000000000000000000000000000000000000005f52602260045260245ffd5b5f6002820490506001821680610c0d57607f821691505b602082108103610c2057610c1f610bc9565b5b50919050565b7f4e487b71000000000000000000000000000000000000000000000000000000005f52601160045260245ffd5b5f610c5d826109e5565b9150610c68836109e5565b9250828203905081811115610c8057610c7f610c26565b5b92915050565b5f610c90826109e5565b9150610c9b836109e5565b9250828201905080821115610cb357610cb2610c26565b5b9291505056fea2646970667358221220eaaed0f011273e7f5f89066052bd6c8c732d11f19f58da97a2e0e10ef5681dfc64736f6c634300081c003300000000000000000000000000000000000000000000000000000000000000400000000000000000000000000000000000000000000000000000000000000080000000000000000000000000000000000000000000000000000000000000000b536861776e20546f6b656e00000000000000000000000000000000000000000000000000000000000000000000000000000000000000000000000000000000025343000000000000000000000000000000000000000000000000000000000000",
        "nonce": "0x12",
        "chainId": "0x4268"
      },
      "additionalContracts": [],
      "isFixedGasLimit": false
    },
    {
      "hash": "0x1b032eea67abf86c57e988ed8ea37411dd2e7e61b2216cf91d32cbea088bcc08",
      "transactionType": "CALL",
      "contractName": "ShawnERC20",
      "contractAddress": "0x5eb028b67b2b89ec8e66d69c1be43e1287229e7a",
      "function": "mint(uint256)",
      "arguments": [
        "100000000000000000000"
      ],
      "transaction": {
        "from": "0xed2eb97b84386cb74c1232e833c8ca26fcd2e1b9",
        "to": "0x5eb028b67b2b89ec8e66d69c1be43e1287229e7a",
        "gas": "0x17114",
        "value": "0x0",
        "input": "0xa0712d680000000000000000000000000000000000000000000000056bc75e2d63100000",
        "nonce": "0x13",
        "chainId": "0x4268"
      },
      "additionalContracts": [],
      "isFixedGasLimit": false
    },
    {
      "hash": "0xeefc9a3e2ee459bb7c2c609080848dfb2d619f07c4839ee8d14e3cf0ee88c366",
      "transactionType": "CALL",
      "contractName": "ShawnERC20",
      "contractAddress": "0x5eb028b67b2b89ec8e66d69c1be43e1287229e7a",
      "function": "transfer(address,uint256)",
      "arguments": [
        "0x000000000000000000000000000000000000bEEF",
        "10000000000000000000"
      ],
      "transaction": {
        "from": "0xed2eb97b84386cb74c1232e833c8ca26fcd2e1b9",
        "to": "0x5eb028b67b2b89ec8e66d69c1be43e1287229e7a",
        "gas": "0x1185f",
        "value": "0x0",
        "input": "0xa9059cbb000000000000000000000000000000000000000000000000000000000000beef0000000000000000000000000000000000000000000000008ac7230489e80000",
        "nonce": "0x14",
        "chainId": "0x4268"
      },
      "additionalContracts": [],
      "isFixedGasLimit": false
    },
    {
      "hash": "0x635c631017ba89e293bea01483367a6180f970587ca13b8b38c8d7e6256e9e94",
      "transactionType": "CALL",
      "contractName": "ShawnERC20",
      "contractAddress": "0x5eb028b67b2b89ec8e66d69c1be43e1287229e7a",
      "function": "burn(uint256)",
      "arguments": [
        "10000000000000000000"
      ],
      "transaction": {
        "from": "0xed2eb97b84386cb74c1232e833c8ca26fcd2e1b9",
        "to": "0x5eb028b67b2b89ec8e66d69c1be43e1287229e7a",
        "gas": "0xb820",
        "value": "0x0",
        "input": "0x42966c680000000000000000000000000000000000000000000000008ac7230489e80000",
        "nonce": "0x15",
        "chainId": "0x4268"
      },
      "additionalContracts": [],
      "isFixedGasLimit": false
    }
  ],
  "receipts": [
    {
      "status": "0x1",
      "cumulativeGasUsed": "0xd26e8",
      "logs": [],
      "logsBloom": "0x00000000000000000000000000000000000000000000000000000000000000000000000000000000000000000000000000000000000000000000000000000000000000000000000000000000000000000000000000000000000000000000000000000000000000000000000000000000000000000000000000000000000000000000000000000000000000000000000000000000000000000000000000000000000000000000000000000000000000000000000000000000000000000000000000000000000000000000000000000000000000000000000000000000000000000000000000000000000000000000000000000000000000000000000000000000",
      "type": "0x2",
      "transactionHash": "0xa20fbdecab4a729422d51d88086bd93ee3405bea08532c4added2ace959c52f6",
      "transactionIndex": "0x0",
      "blockHash": "0x92c2d7799cb187c0601384268b3b7194c3045b07c8608d4de1bb8407ffff7036",
      "blockNumber": "0x390097",
      "gasUsed": "0xd26e8",
      "effectiveGasPrice": "0xf89f2",
      "from": "0xed2eb97b84386cb74c1232e833c8ca26fcd2e1b9",
      "to": null,
      "contractAddress": "0x5eb028b67b2b89ec8e66d69c1be43e1287229e7a"
    },
    {
      "status": "0x1",
      "cumulativeGasUsed": "0x107b76",
      "logs": [
        {
          "address": "0x5eb028b67b2b89ec8e66d69c1be43e1287229e7a",
          "topics": [
            "0xddf252ad1be2c89b69c2b068fc378daa952ba7f163c4a11628f55a4df523b3ef",
            "0x0000000000000000000000000000000000000000000000000000000000000000",
            "0x000000000000000000000000ed2eb97b84386cb74c1232e833c8ca26fcd2e1b9"
          ],
          "data": "0x0000000000000000000000000000000000000000000000056bc75e2d63100000",
          "blockHash": "0x92c2d7799cb187c0601384268b3b7194c3045b07c8608d4de1bb8407ffff7036",
          "blockNumber": "0x390097",
          "transactionHash": "0x1b032eea67abf86c57e988ed8ea37411dd2e7e61b2216cf91d32cbea088bcc08",
          "transactionIndex": "0x5",
          "logIndex": "0x1",
          "removed": false
        }
      ],
      "logsBloom": "0x00000000000000000000000000000000000000000000000000000000000000000000000000000000000000000000000000000000000000000000000000000100000000000000000000000008000000000000000000000000000000000000000000080000020000000000000000000800000000000000000000000010000000000000000000000000000000000000000000000020000000000000000000000000000000000000000000000000000400000000000000000000000000000000000000000002000000000000000000000000010000000000000000000000000020000000000000000000000000000000000000000000000000000020000000000000",
      "type": "0x2",
      "transactionHash": "0x1b032eea67abf86c57e988ed8ea37411dd2e7e61b2216cf91d32cbea088bcc08",
      "transactionIndex": "0x5",
      "blockHash": "0x92c2d7799cb187c0601384268b3b7194c3045b07c8608d4de1bb8407ffff7036",
      "blockNumber": "0x390097",
      "gasUsed": "0x10b35",
      "effectiveGasPrice": "0xf89f2",
      "from": "0xed2eb97b84386cb74c1232e833c8ca26fcd2e1b9",
      "to": "0x5eb028b67b2b89ec8e66d69c1be43e1287229e7a",
      "contractAddress": null
    },
    {
      "status": "0x1",
      "cumulativeGasUsed": "0x120e97",
      "logs": [
        {
          "address": "0x5eb028b67b2b89ec8e66d69c1be43e1287229e7a",
          "topics": [
            "0xddf252ad1be2c89b69c2b068fc378daa952ba7f163c4a11628f55a4df523b3ef",
            "0x000000000000000000000000ed2eb97b84386cb74c1232e833c8ca26fcd2e1b9",
            "0x000000000000000000000000000000000000000000000000000000000000beef"
          ],
          "data": "0x0000000000000000000000000000000000000000000000008ac7230489e80000",
          "blockHash": "0x92c2d7799cb187c0601384268b3b7194c3045b07c8608d4de1bb8407ffff7036",
          "blockNumber": "0x390097",
          "transactionHash": "0xeefc9a3e2ee459bb7c2c609080848dfb2d619f07c4839ee8d14e3cf0ee88c366",
          "transactionIndex": "0x8",
          "logIndex": "0x3",
          "removed": false
        }
      ],
      "logsBloom": "0x00000000000000000000000000000000000000000000000000000000000000000000000000000000000000000000000000000000000000000000000000000100000000000000000000000008000000000000000000014000000000000000000000080000000000000000000000000000000000000000000000000010000000000000000000000000000000000000000000000020000000000040000000000000000000000000000000000000000400000000000000000000000000000000000000000002000000000000000000000000010000000000000000000000000000000000000000000000000000000000000000000000000000000020000000000000",
      "type": "0x2",
      "transactionHash": "0xeefc9a3e2ee459bb7c2c609080848dfb2d619f07c4839ee8d14e3cf0ee88c366",
      "transactionIndex": "0x8",
      "blockHash": "0x92c2d7799cb187c0601384268b3b7194c3045b07c8608d4de1bb8407ffff7036",
      "blockNumber": "0x390097",
      "gasUsed": "0xcafd",
      "effectiveGasPrice": "0xf89f2",
      "from": "0xed2eb97b84386cb74c1232e833c8ca26fcd2e1b9",
      "to": "0x5eb028b67b2b89ec8e66d69c1be43e1287229e7a",
      "contractAddress": null
    },
    {
      "status": "0x1",
      "cumulativeGasUsed": "0x12e5ee",
      "logs": [
        {
          "address": "0x5eb028b67b2b89ec8e66d69c1be43e1287229e7a",
          "topics": [
            "0xddf252ad1be2c89b69c2b068fc378daa952ba7f163c4a11628f55a4df523b3ef",
            "0x000000000000000000000000ed2eb97b84386cb74c1232e833c8ca26fcd2e1b9",
            "0x0000000000000000000000000000000000000000000000000000000000000000"
          ],
          "data": "0x0000000000000000000000000000000000000000000000008ac7230489e80000",
          "blockHash": "0x92c2d7799cb187c0601384268b3b7194c3045b07c8608d4de1bb8407ffff7036",
          "blockNumber": "0x390097",
          "transactionHash": "0x635c631017ba89e293bea01483367a6180f970587ca13b8b38c8d7e6256e9e94",
          "transactionIndex": "0xa",
          "logIndex": "0x4",
          "removed": false
        }
      ],
      "logsBloom": "0x00000000000000000000000000000000000000000000000000000000000000000000000000000000000000000000000000000000000000000000000000000100000000000000000000000008000000000000000000000000000000000000000000080000020000000000000000000800000000000000000000000010000000000000000000000000000000000000000000000020000000000000000000000000000000000000000000000000000400000000000000000000000000000000000000000002000000000000000000000000010000000000000000000000000020000000000000000000000000000000000000000000000000000020000000000000",
      "type": "0x2",
      "transactionHash": "0x635c631017ba89e293bea01483367a6180f970587ca13b8b38c8d7e6256e9e94",
      "transactionIndex": "0xa",
      "blockHash": "0x92c2d7799cb187c0601384268b3b7194c3045b07c8608d4de1bb8407ffff7036",
      "blockNumber": "0x390097",
      "gasUsed": "0x854f",
      "effectiveGasPrice": "0xf89f2",
      "from": "0xed2eb97b84386cb74c1232e833c8ca26fcd2e1b9",
      "to": "0x5eb028b67b2b89ec8e66d69c1be43e1287229e7a",
      "contractAddress": null
    }
  ],
  "libraries": [],
  "pending": [],
  "returns": {},
  "timestamp": 1745632934,
  "chain": 17000,
  "commit": "b3ca365"
}